:1000000012C019C018C017C016C015C014C013C044
:1000100012C011C010C00FC00EC00DC00CC00BC06C
:100020000AC009C008C011241FBECFE5D4E0DEBF5E
:10003000CDBF02D0E7C0E4CF5CD03ED026D003D005
:1000400058D0FDCF089533D00FEF9F3818F496376E
:1000500008F000270023C9F00FEF933718F4993602
:1000600008F000270023A9F00FEF9A3418F4903419
:1000700008F00027002389F00FEF9C3118F492312B
:1000800008F00027002369F010C0E0E6F0E09ED001
:100090000BC0E4E8F0E0A1D007C0E8EAF0E0A4D0AB
:1000A00003C0ECECF0E0A7D011D023D00895369A2D
:1000B000349BFECF95B10895A3983E9A3F9A3D9AFE
:1000C000399A389A329A319A379A08954427249166
:1000D0003196349106D04395423111F03196F7CFE5
:1000E000089510D032D0122F33D0132F31D01DD01D
:1000F00008958FEF8F938FEF8A95F1F78F918A95FF
:10010000C9F70895999BFECF7AE07A95F1F7A09A06
:10011000A8987AE07A95F1F77AE07A95F1F7A19AC2
:10012000A9987AE07A95F1F70895A198A9987AE0CC
:100130007A95F1F7999BFECF7AE07A95F1F7A0983E
:10014000A8987AE07A95F1F7089510EC01D0089517
:100150006F7B58E017FF06C0A098A8987AE07A95C0
:10016000F1F705C0A09AA8987AE07A95F1F7A198DE
:10017000A9987AE07A95F1F7999BFECF7AE07A9583
:10018000F1F77AE07A95F1F7A19AA9987AE07A9551
:10019000F1F77AE07A95F1F7110F5A95D9F6A09810
:1001A000A8987AE07A95F1F7A198A9987AE07A95DB
:1001B000F1F7A89B6064999BFECF7AE07A95F1F7FE
:1001C000A19AA9987AE07A95F1F70895B998BA9822
:1001D0008F9A979AB89AC0980895B998BA988F9AB2
:1001E0009798B89AC09A08958F98B898B99AC19A72
:1001F000BA9AC29808958F98B898B99AC198BA9A3D
:08020000C29A0895F894FFCFA3
:100208001AFF1BFF1C001D101E001FF020002100FC
:100218002A002B012C012DC02E002F0030003100A8
:10022800B1A0104F19FF1BFF1C001D101E001FF06E
:10023800200021002A002B012C012D2A2E002F003E
:1002480030003100B1A0104F1AFF1BFF1C001D1019
:100258001E001FF0200021002A002B012C002DDF9A
:100268002E002F0030003100B1A0104F1AFF1BFFE5
:100278001C001D101E001FF0200021002A002B0169
:100288002C002DB22E002F0030003100B1A0104FED
:00000001FF
